:100000000C948E010C94D2010C94D2010C94D20168
:100010000C94D2010C94D2010C94D2010C94D20114
:100020000C94D2010C94D2010C94E91B0C94BB1CCF
:100030000C9443120C94D2010C94D2010C94D20172
:100040000C94D2010C94D2010C94D2010C94D201E4
:100050000C94D2010C94AA120C94D2010C94D201EB
:100060000C94D2010C94D2010C94D2010C94D201C4
:100070000C94D2010C94D2010C94D2010C94D201B4
:100080000C94D2010C94D2010C94D2010C94D201A4
:100090000C94D2010C94D2010C94D2010C94D20194
:1000A0000C94D2010C94D2010C94D20146024C0261
:1000B0005002530257025B025F02630268026C0245
:1000C0007002740277027B027F02830287028C0235
:1000D000370937096A096A09AA09CC09F40AF40A36
:1000E000D709F40A7E0A7E0AE70AF40AF40AEF0A3C
:1000F0008B0A8B0A8B0A8B0A8B0A8B0A8B0A8B0A58
:100100008B0A8B0A8B0A8B0A8B0A8B0A8B0A8B0A47
:100110009B0AAB0AB20AB90AC30A740B740B870BA9
:10012000870B7D0B870B870B870B740B740B830B73
:10013000870B870B830B201D421D2D1E421D2D1E7C
:10014000841DA71D2D1EFC1D0F1E00202B002E0040
:100150002A0053005400550056005F006000610003
:1001600000005C005D002300570059005A00200089
:1001700000006200000063005800160325004B00D9
:100180004500590042004F00410052004400250044
:100190000000080359006F00750000000403090403
:1001A00009026D00040100A0FA0904000001030126
:1001B0000100092111010001224000070581030807
:1001C000000A0904010001030102000921110100D4
:1001D00001224D000705820308000A0904020001FC
:1001E00003000000092111010001223600070583E8
:1001F0000308000A0904030001030000000921119B
:1002000001000122390007058403200001120110BA
:100210000100000008EDFE60600100010200010520
:10022000010906A101050719E029E7150025019537
:1002300008750181020508190129059505750191C7
:10024000029501750391010507190029F71500258D
:100250000195F875018102C005010980A10185029F
:100260001601002603001A81002A830075109501EB
:100270008100C0050C0901A1018503160100269C1F
:10028000021A01002A9C02751095018100C0050127
:100290000902A1010901A10005091901290515009B
:1002A00025019505750181029501750381010501FF
:1002B000093009311581257F9502750881060938B5
:1002C0001581257F950175088106050C0A380215F0
:1002D00081257F950175088106C0C005010906A129
:1002E00001050719E029E715002501950875018129
:1002F0000295017508810105081901290595057503
:100300000191029501750391010507190029FF1557
:100310000026FF00950675088100C00011241FBE4D
:10032000CFEFDAE0DEBFCDBF04B603FE24C080917C
:10033000120290911302A0911402B091150287301D
:10034000904BA740B04BB9F41092120210921302D6
:10035000109214021092150214BE84B7877F84BFD6
:1003600088E10FB6F89480936000109260000FBE91
:10037000E0E0FFE3099511E0A0E0B1E0E6EDFFE386
:1003800002C005900D92AC33B107D9F712E0ACE38F
:10039000B1E001C01D92A231B107E1F70E941D1921
:1003A0000C94E91F0C9400000C94EC010C94ED01EA
:1003B0000C94EE010C94F00161110BC0FC018281E0
:1003C000882321F085EE0E94CA0703C085EE0E94B3
:1003D0009D0880E090E008950895089581E00895D3
:1003E000089581E008950E94620B2FEF84E39CE062
:1003F000215080409040E1F700C000000C94D012E2
:100400000F931F93CF93DF938C01FC01C081D181A7
:10041000CE010E944E10BE010E943C03EC01B801C7
:100420000E94D801882309F41AC1B801CE010E94A4
:100430006105882309F413C1C531FCE5DF0708F025
:10044000A3C0C2308CE5D80708F478C0F8018281D7
:10045000882309F47FC00E94E111811102C00E942B
:10046000C7110E94F41190E090930402809303025C
:10047000FE01E350FC45E231F10520F4EA5AFF4F5A
:100480000C94991F80910302816003C08091030244
:100490008260809303024BC0809103028460F9CF95
:1004A0008091030213C0809103028061F2CF80919A
:1004B00003028062EECF809103028064EACF8091D4
:1004C00003028068E6CF8091030284608860E1CFF8
:1004D000809103028E7FDDCF809103028D7FD9CF83
:1004E000809103028B7FD5CF8091030213C080914E
:1004F00003028F7ECECF809103028F7DCACF809181
:1005000003028F7BC6CF809103028F77C2CF809189
:1005100003028B7F877FBDCF9091030297FB8827D3
:1005200080F921E0822780FB97F990930302809164
:1005300003020E94F8110E94620B91C0C115ECE504
:10054000DE0779F0C130DC45A1F081E080933E0107
:1005500080933F01C801DF91CF911F910F910C94BF
:10056000F101F8018281882309F479C00E94F30126
:1005700076C0F8018281882309F471C08091CF018F
:1005800081608093CF016BC0CD338CE5D80739F5FE
:10059000F8018281882361F010923F010E94751258
:1005A00090933D0180933C0180E20E94EC0857C08B
:1005B00080913F0181110FC080913C0190913D01DC
:1005C0000E948112883C910530F487E20E94CA079C
:1005D00087E20E949D0880E20E94F30840C0CE336B
:1005E000ECE5DE0738F5CC33DC4509F0AECFF80199
:1005F0008281882351F010923E010E9475129093DF
:100600003D0180933C0182E0D0CF80913E01811179
:100610000FC080913C0190913D010E948112883C65
:10062000910530F486E20E94CA0786E20E949D0886
:1006300082E0D2CFC0348CE5D80731F4F801828152
:10064000882369F080E009C0C134DC4509F07DCF22
:10065000F8018281882319F082E00E94AF1980E0BE
:10066000DF91CF911F910F9108950C94D4010C94B8
:10067000D6010C94DA010895E72FF0E096E0899F07
:10068000E00DF11D1124EE0FFF1FEE0FFF1FE60F0F
:10069000F11DEE0FFF1FE65BFE4F859194910895CB
:1006A000880F991F865B9E4FFC0185919491089558
:1006B0000E943C030E94E404811520E49207B0F5F7
:1006C000811540E3940708F0DBC0803E9105D8F423
:1006D000803C910508F069C0883A910578F4853A24
:1006E000910508F065C08130910509F46CC108F4EA
:1006F00023C18430910508F066C11EC18D3B910570
:1007000008F461C019C18F3F910509F048F4803F9A
:10071000910508F0AFC0883E910508F454C10CC1A2
:10072000811520E2920708F0A7C00895811544E5DD
:100730009407D8F4811523E5920708F0DCC08115F1
:1007400041E5940740F4811520E5920708F0A2C026
:100750009F70906A0895811542E5940708F0B6C02D
:10076000982F8827816F906A0895811526E5920752
:1007700050F4811545E5940708F0D2C0982F8827DA
:10078000846F906A0895811528E5920708F4D4C013
:10079000811549E5940708F4C8C09C01305621151D
:1007A000304208F0C9C09F71C5C0805C910965C026
:1007B000853A910509F4C3C0863A910509F4C2C08F
:1007C00083E890E40895883A910509F4BEC0893A17
:1007D000910509F4BDC08A3A910509F4BCC08B3A71
:1007E000910509F4BBC08C3A910509F4BAC08B3B62
:1007F000910509F4B9C08C3B910509F4B8C08D3A54
:10080000910509F4B7C0803B910509F4B6C08E3A52
:10081000910509F4B5C08F3A910509F4B4C0813B44
:10082000910509F4B3C0823B910509F4B2C0833B42
:10083000910509F4B1C0843B910509F4B0C0853B32
:10084000910509F4AFC0863B910509F4AEC0873B22
:10085000910509F4ADC0883B910509F4ACC0893B12
:10086000910509F4ABC08A3B910509F0AAC08AE260
:1008700096E40895906508959F700E94500308952E
:100880009C01332793FF03C0C901986C0895C901E7
:10089000906C0895482F437021E030E002C0220F91
:1008A000331F4A95E2F73C68AC0174E056954795D2
:1008B0007A95E1F74370342B8F708695869540E2E8
:1008C000849FC0011124822B932B0895282F2695F5
:1008D000269540E2249F90011124AC0143705527D6
:1008E00081E090E002C0880F991F4A95E2F7822BC1
:1008F000932B9C680895282F2695269540E2249FE7
:1009000090011124AC014370552781E090E002C0B2
:10091000880F991F4A95E2F7822B932B9A680895C6
:100920008F719927982F882705C0982F8827806F67
:10093000906A08959062089580E090E0089581E8BB
:1009400090E4089582E890E4089582EE94E4089596
:1009500089EE94E408958AEE94E4089585EB94E496
:10096000089586EB94E4089583EB94E4089584EB72
:1009700094E4089587EB94E408958CEC94E408954E
:100980008DEC94E4089583E895E408958AE895E46D
:10099000089582E995E4089584E995E4089581E253
:1009A00096E4089583E296E4089584E296E4089537
:1009B00085E296E4089586E296E4089587E296E457
:1009C000089580E094E408958238910549F1B0F4E7
:1009D0008133910509F459C048F48932910509F42D
:1009E0004FC08A32910509F455C0089585339105A9
:1009F00009F441C08933910599F00895833E91052A
:100A000031F138F4803E910591F0823E9105A9F0D4
:100A10000895863E910501F1873E910539F10895CB
:100A20002091030220FD3BC021FD39C00895809133
:100A3000030280FF34C089E341C08091030282FF3A
:100A400032C08091030284FF2CC080E037C08091C7
:100A5000030282FD28C0F5CF8091030283FF25C0E9
:100A60008091030284FDF1CF87EE28C080910302BC
:100A700083FD1BC0F5CF8091030285FF18C019C00C
:100A80008091030285FF15C012C08091030286FF8A
:100A900012C013C08091030286FF0FC00CC080EE0D
:100AA0000DC083EE0BC082EE09C086EE07C085E361
:100AB00005C089E203C081E301C08AE290E00895A5
:100AC0000895CF93DF93EC01FB018281811102C075
:100AD00081E040C080914D01811125C0C531DC45C8
:100AE000B9F70E94600581E080934D010E94751264
:100AF00090934C0180934B0110924001109242015F
:100B0000109241011092440110924301109246014B
:100B100010924501109248011092470110924A012B
:100B20001092490116C080914B0190914C010E9496
:100B30008112883C910560F680914001E82FF0E039
:100B4000EE0FFF1FEF5BFE4FD183C0838F5F80935B
:100B5000400180E0DF91CF91089585B7806885BF1F
:100B600085B7806885BFA7E1B1E021E030E08D91D5
:100B7000E82FE295EF70F0E041A18F70B90102C05B
:100B8000660F771F8A95E2F7CB01962F9095492340
:100B900041A392A1982B92A371E0AD31B70739F729
:100BA000A3E1B1E021E030E08D91E82FE295EF7014
:100BB000F0E041A18F70B90102C0660F771F8A95DE
:100BC000E2F7CB01962F9095492341A392A1982B50
:100BD00092A371E0A731B70739F7E4E5F1E0AEE49D
:100BE000B1E011921D9281E0EA35F807D1F70C943B
:100BF00035036F927F929F92AF92BF92CF92DF9216
:100C0000EF92FF920F931F93CF93DF9307E111E0D1
:100C1000CEE4D1E0EE24E394F12CBB24B394AE01F6
:100C200098801882D8012D918D01E22FE295EF7006
:100C3000F0E081A12F70B70102C0660F771F2A95DF
:100C4000E2F79B01862B81A382A1A62EA0948A2184
:100C500082A370EA7A95F1F763E1662E61E0762E61
:100C600080E090E0D3017D913D01C72EC2943FE02A
:100C7000C322D12CD6019096DC90C8807F70D7011A
:100C800002C0AA0FBB1F7A95E2F7DA2239F46E2D63
:100C9000082E01C0660F0A94EAF701C060E06C29D3
:100CA0006883019684309105E9F681A18A2181A3A8
:100CB00082A1822B82A32196FA018081981641F0AD
:100CC000B0925A010E94751290935C0180935B016F
:100CD000F1E00D311F0709F0A2CF80915A0188235E
:100CE000A1F080915B0190915C010E9481120697B6
:100CF00060F0EEE4F1E0A4E5B1E081918D9361E074
:100D0000E435F607D1F710925A010E94370381E0CB
:100D1000DF91CF911F910F91FF90EF90DF90CF90D7
:100D2000BF90AF909F907F906F900895E82FF0E074
:100D3000EC5AFE4F8081089508959093620180934C
:100D400061010895E0916101F0916201309721F015
:100D50000190F081E02D099480E00895E091610117
:100D6000F0916201309721F00280F381E02D099427
:100D70000895E0916101F0916201309721F00480C3
:100D8000F581E02D0994089520915F013091600173
:100D90008217930771F09093600180935F01E09157
:100DA0006101F0916201309721F00680F781E02D1A
:100DB0000994089520915D0130915E018217930797
:100DC00071F090935E0180935D01E0916101F0917B
:100DD0006201309721F00084F185E02D0994089597
:100DE00008950C94F0060E946C120E94AD050C94BC
:100DF000F312CF92DF92EF92FF920F931F93CF9354
:100E0000DF93CDB7DEB72B970FB6F894DEBF0FBEDA
:100E1000CDBF0E94F90534E6E32E31E0F32E00E069
:100E200010E0C02E802F0E949606F701D1907F011E
:100E3000D826B1F40F5F1F4F0630110591F78FEFE1
:100E400089838A831B820E9475128160782F9D831B
:100E50008C8349815A816B818D810E949C0741C09E
:100E60009091CF0191FF04C08B870E949C068B85D7
:100E700020E030E04D2D50E0922FBA01022E02C04A
:100E8000759567950A94E2F760FF25C02E83CF829F
:100E9000EE24E394F12C02C0EE0CFF1C9A95E2F7CD
:100EA00090E08E219F2121E0892B09F420E0288702
:100EB0000E9475128160782F9A8789874E815F81A1
:100EC00068858A850E949C07F801EC59FE4F808155
:100ED0008E25808306C02F5F3F4F2430310561F699
:100EE000A9CF0E948514109163010E94A2061817D1
:100EF000A1F00E94A206809363012B960FB6F8948E
:100F0000DEBF0FBECDBFDF91CF911F910F91FF903C
:100F1000EF90DF90CF900C9439032B960FB6F89496
:100F2000DEBF0FBECDBFDF91CF911F910F91FF901C
:100F3000EF90DF90CF900895CF93DF93CDB7DEB7DA
:100F40002B970FB6F894DEBF0FBECDBF4F835887E7
:100F500069877A878B87DE01119686E0FD01119201
:100F60008A95E9F785E0FE01379601900D928A9502
:100F7000E1F749815A816B817C818D819E810E943C
:100F80002C0E2B960FB6F894DEBF0FBECDBFDF91AF
:100F9000CF910895CF93C82F882309F4CCC082380D
:100FA00059F40E94A20681FDC6C089E30E94CE10BA
:100FB0000E94981189E30CC0833879F40E94A2063C
:100FC00080FDB9C083E50E94CE100E94981183E590
:100FD0000E940E11CF910C949811843859F40E94FC
:100FE000A20682FDA8C087E40E94CE100E9498113C
:100FF00087E4EECF8CEF8C0F813A48F48C2F0E945F
:10100000BC16811198C08C2F0E94CE10E3CF80E2D5
:101010008C0F883048F4C77081E001C0880FCA95F2
:10102000EAF70E944F11D6CF8BE58C0F833078F40E
:10103000C53A29F0C63A31F482E890E005C081E86B
:1010400090E002C083E890E0CF910C94C40688E55C
:101050008C0F853108F06FC0C83A61F1C93A69F167
:10106000CA3A71F1CB3A79F1CC3A81F1CB3B89F1B3
:10107000CC3B91F1CD3A99F1C03BA1F1CE3AA9F127
:10108000CF3AB1F1C13BB9F1C23BC1F1C33BC9F1A8
:10109000C43BD1F1C53BD9F1C63BE1F1C73BE9F116
:1010A000C83BF1F1C93BF9F1CA3B09F03FC08AE204
:1010B00092E03EC082EE90E03BC089EE90E038C006
:1010C0008AEE90E035C085EB90E032C086EB90E090
:1010D0002FC083EB90E02CC084EB90E029C087EB1D
:1010E00090E026C08CEC90E023C08DEC90E020C016
:1010F00083E891E01DC08AE891E01AC082E991E09E
:1011000017C084E991E014C081E292E011C083E24B
:1011100092E00EC084E292E00BC085E292E008C04B
:1011200086E292E005C087E292E002C080E090E0B3
:10113000CF910C94DA06CF910895882309F44BC01F
:10114000823859F40E94A20681FF45C089E30E94BB
:10115000CE100E94981189E30CC0833871F40E946C
:10116000A20680FF38C083E50E94CE100E9498112D
:1011700083E50E940E110C949811843859F40E9452
:10118000A20682FF28C087E40E94CE100E94981118
:1011900087E4EFCF9CEF980F913A58F390E2980FC5
:1011A000983050F4877091E001C0990F8A95EAF762
:1011B000892F0E945511DFCF9BE5980F933020F4C3
:1011C00080E090E00C94C406885A853120F480E0D9
:1011D00090E00C94DA060895882321F00E944F11C4
:1011E0000C9498110895882321F00E9455110C94B5
:1011F000981108958F929F92AF92BF92CF92DF92F3
:10120000EF92FF920F931F93CF93DF931F92CDB76F
:10121000DEB74C01A62E472FFC01E580E2948FE05B
:10122000E822F280FF2021F079830E946C1149812D
:1012300049830E94C7104981882381F0FF2071F003
:1012400080E28A0D883050F082E00E94B0100E9447
:10125000C710BB24B394B826498101C0B12CE42F38
:10126000E295EF70F0E0E859FF4F0C94991F842F3E
:10127000807F142F1F70882311F01295107FFF209C
:1012800099F0112309F499C180E28A0D883010F099
:10129000A11004C0812F0E944F1103C0812F0E9412
:1012A0005F110E94981189C18A2D0E949D08112307
:1012B00009F49AC180E28A0D883010F0A11004C0B0
:1012C000812F0E94551103C0812F0E9465110E9439
:1012D00098118AC1242F207F842F8F70203211F023
:1012E0008295807FAA2021F0F1E0AF16B1F021C0F5
:1012F000FF2041F0EE2039F191E0E91224C00E9474
:101300007F1172C1EE2021F0E1E0EE1609F46CC10C
:1013100089830E94821189810BC1FF2029F0F5E0A9
:10132000FE1508F461C10FC094E09E1508F45CC17D
:10133000FFC0FF2059F0EE2031F0F401958190FFBD
:101340003CC19F7095830E94EC084EC1EE2009F4C9
:10135000EFC039C1242F26952695237030E0211542
:10136000310521F02130310561F03EC1FF2021F02F
:101370008A2D942F937002C080E090E00E94C406F2
:1013800033C1FF2021F08A2D942F937002C080E09A
:1013900090E00E94DA0628C18A2DFF2019F00E94F1
:1013A0008D1302C00E94F5130E947A141DC1842F70
:1013B000837009F04EC0F11017C12A2D2295269591
:1013C0002770220F220F8A2D8F70C82ED12CE12C6E
:1013D000F12C022E04C0CC0CDD1CEE1CFF1C0A9468
:1013E000D2F7A4FE10C06FE070E080E090E004C08F
:1013F000660F771F881F991F2A95D2F76095709501
:101400008095909503C060E070E0CB01242F269575
:101410002695237030E02230310569F02330310504
:1014200089F06C297D298E299F292130310571F0A1
:101430000E947D0FD9C06C297D298E299F290E9489
:101440008F0FD2C00E947D0FC701B6010E946B0FA3
:10145000CBC0FF2019F0842F817001C086958823AE
:1014600009F4C2C02A2D229526952770220F220F3B
:101470008A2D8F70C82ED12CE12CF12C022E04C0A5
:10148000CC0CDD1CEE1CFF1C0A94D2F7A4FE10C08D
:101490006FE070E080E090E004C0660F771F881F67
:1014A000991F2A95D2F7609570958095909503C005
:1014B00060E070E0CB01242F26952695237030E064
:1014C0002230310569F02330310589F06C297D29FE
:1014D0008E299F292130310571F00E94291084C086
:1014E0006C297D298E299F290E943B107DC00E9476
:1014F0002910C701B6010E94171076C00A2D10E00E
:10150000F801E05EF109E531F10508F052C0E85854
:10151000FF4F0C94991F1A2D1F70842F8F71FF207D
:1015200021F00E94C20F812F0ECF0E94DD0F812F6C
:101530000E94F30859C0FF2049F0F4E0FE1508F4BA
:1015400053C0842F8F710E94FC0F4EC085E08E1512
:1015500008F44AC0F6CFFF2039F0842F8F710E9423
:10156000C20F42C0FF20C9F3842F8F710E94DD0F8C
:101570003BC0FF2029F0842F8F710E94B30F34C02D
:101580000E94AE0F31C0FF2051F0142F1F71812F28
:101590000E94C20F63E0812F0E94A71025C081E046
:1015A0000E94B01091E09E15F8F482E00E94B01005
:1015B0001BC0FF2031F0EE2081F28A2D0E94CA0765
:1015C00013C0EE2089F28A2D0E949D080DC04F7035
:1015D0006A2DC4010E94DC010E94D90E05C04F7023
:1015E0006A2DC4010E943B03BB20F1F00E94A310AE
:1015F00080FD1AC0F40112820E949D100E94C20F49
:10160000C4010E94220B0E949D100F90DF91CF9188
:101610001F910F91FF90EF90DF90CF90BF90AF9010
:101620009F908F900C94DD0F0F90DF91CF911F91C1
:101630000F91FF90EF90DF90CF90BF90AF909F9071
:101640008F9008950F931F93CF93DF93EC01288120
:1016500039818B819C81892B31F03F3F11F080E0F3
:1016600003C02F3FE1F781E0811113C0CE010E943A
:101670000002882371F0688179818A810E94991023
:101680008C010E944D100E94680FB801CE010E948B
:10169000FA08DF91CF911F910F9108950E946C116C
:1016A0000E947C110E9441110E9498110E942615EF
:1016B0000E947A1480E090E00E94C40680E090E0EE
:1016C0000C94DA060E945C110C944E0B0E948E1052
:1016D000E92FE295EF70F0E03297EE30F105B8F4C3
:1016E000E357FF4F0C94991F803F59F018F4803E48
:1016F00070F407C0843F59F404C0803E10F0813F6D
:1017000031F481E0089593FB882780F9089580E003
:101710000895CF93DF9300D000D01F92CDB7DEB7EE
:101720000F900F900F900F900F90DF91CF91089531
:10173000CF93DF9300D000D000D0CDB7DEB7269690
:101740000FB6F894DEBF0FBECDBFDF91CF910895E5
:101750001F93CF93DF93C0916A0116E080916B01D4
:10176000C81799F0D0E01C9FF0011D9FF00D1124C7
:10177000E459FE4F4081518162817381848195815A
:101780000E94980B2196C770E9CFDF91CF911F91EE
:10179000089540919C0150919D0160919E0170912E
:1017A0009F018091A0019091A1010C94980BCF937F
:1017B0008091A10182958F7009F05FC080919E0198
:1017C000882309F45AC020916A01A0916B016091AD
:1017D0009C0170919D0180919F019091A00131E049
:1017E0006F3F09F030E0B32FC6E02A1709F445C077
:1017F000009721F07F3F21F44B2F03C041E001C04F
:1018000040E030E040FD35C0C29FF001C39FF00DC5
:101810001124E459FE4F418174132BC0408164139D
:1018200028C04281411125C043815481481759077E
:1018300010F441505109481B590B483C5105C8F45C
:101840008091A1018F7080618093A10186E0829FC9
:10185000F001839FF00D1124EF58FE4F80818F70AF
:10186000806180838CE991E00E94220BCF910C94DF
:10187000A80B2F5F3F4F2770B8CFCF910895CF921D
:10188000DF92EF92FF920F931F93CF93DF93CDB729
:10189000DEB762970FB6F894DEBF0FBECDBF8C01E6
:1018A00085E0F801DE011D9601900D928A95E1F721
:1018B000D8014C9111965C91119712966C911297E8
:1018C0001396ED90FC90149770919C01E0919D010E
:1018D00020919F013091A0012115310531F0EF3F9A
:1018E00031F481E07F3F19F403C081E001C080E062
:1018F000B82FB170CB2E80FD6CC1D0909E01DD2041
:1019000009F4F5C0F091A101E216F30638F0C70121
:10191000821B930B883C910548F09BC02095309525
:101920002E0D3F1D283C310508F093C08F2F807F7E
:1019300009F052C0E51314C0741312C0D62E611101
:101940000FC0FF70F061F093A1010E94C90B8CE9F8
:1019500091E00E94220B8091A101F80185836CC166
:10196000EF2831F05F3F31F481E04F3F19F403C0BD
:1019700081E001C080E080FD03C081E0862701C0D6
:1019800080E0F82FF170FF2E80FF1CC080916A016B
:1019900020916B0136E0821709F428C190E0389F4E
:1019A000F001399FF00D1124E459FE4F7181571356
:1019B00006C07081471303C07281671303C001968C
:1019C0008770E9CFD62E662309F436C18091A10134
:1019D00081608093A10153C0E51308C0741306C051
:1019E000611104C0D8011596FC93AEC04D875E8787
:1019F0008D859E856A8B0E94660B6A89882329F1F2
:101A0000D62E662311F12091A101822F82958F702D
:101A100090E002970CF460C080919C0190919D0130
:101A200098878F831986FB86EA862C87CE010796D6
:101A300051C0E51731F14D875E878D859E856A8B94
:101A40000E94660B6A8981112EC0C8010E94220B78
:101A5000A4C08F2F807F69F77E2DF98AE88A898953
:101A60000E94890B8CE991E00E94220BECE9F1E0E5
:101A700086E0DF011D928A95E9F70E94C90BD12CFF
:101A8000DBC07413D8CF6111D6CFD8011596FC9363
:101A9000C8010E94220BECE9F1E086E0DF011D9213
:101AA0008A95E9F7C9C0D62E662379F22091A10163
:101AB000822F82958F7090E0029774F080919C0144
:101AC00090919D019A8389831B82FD82EC822E83F3
:101AD000CE0101960E94220B86E0F801ACE9B1E04C
:101AE00001900D928A95E1F70E94D70B6FC0E21624
:101AF000F30628F0C701821B930B9C0104C02095BC
:101B000030952E0D3F1D283C310508F052C0D62ED1
:101B1000662309F49ACFE5132CC074132AC0809170
:101B2000A10180FD1DC0982F92959F70C9F0D8012A
:101B300015968C9315979F3039F09F5F9295907F03
:101B40008F70892B15968C93C8010E94220B86E01A
:101B5000F801ACE9B1E001900D928A95E1F736C049
:101B600086E0F801ACE9B1E001900D928A95E1F7C9
:101B700063C04D875E878D859E850E94660B882396
:101B800079F086E0F801ACE9B1E001900D928A9518
:101B9000E1F70E94D70B0E94C90BDD24D3944CC0FF
:101BA0008091A10181608093A101C8010E94220B54
:101BB00043C07E2DF98AE88A89890E94890BECE965
:101BC000F1E086E0DF011D928A95E9F70E94C90BDA
:101BD00033C0662309F439CF4D875E878D859E8596
:101BE0000E94660B882309F430CFCBCF4D875E87E8
:101BF0008D859E850E948E10292F22952F7030E0B2
:101C0000223031052CF49F7041F0811106C00CC0C8
:101C1000243031052CF49F7049F4805E883020F028
:101C2000C8010E94220BCF2CDC2C06C0D8011596CF
:101C30009C91907F91F7F8CF8D2D62960FB6F89416
:101C4000DEBF0FBECDBFDF91CF911F910F91FF90EF
:101C5000EF90DF90CF9008951F93CF93DF93CDB790
:101C6000DEB72C970FB6F894DEBF0FBECDBF4F8303
:101C7000588769877A878B879C87CE0107960E9451
:101C80003F0C8823C1F02F8138858A859B85892B5D
:101C900031F03F3F11F080E003C02F3FE1F781E0DA
:101CA000811147C04F81588569857A858B859C85D0
:101CB0000E94980B3EC086E0FE013796DE01119629
:101CC00001900D928A95E1F7FF81E8854A855B8551
:101CD0004115510531F0EF3F31F481E0FF3F19F438
:101CE00003C081E001C080E080FD23C020916B0132
:101CF00030E0C90101968770992760916A0170E010
:101D000086179707F1F1F983EA835D834C8396E0A8
:101D1000929FD001939FB00D1124A459BE4FFE0194
:101D2000319601900D929A95E1F780936B010E9494
:101D3000A80B16E080916A0190916B01891779F1E7
:101D4000189FC001112484599E4F0E943F0C882384
:101D500031F1E0916A011E9FF0011124E459FE4F18
:101D60004081518162817381848195810E94980BA9
:101D700080916A0190E001968770992780936A01AB
:101D8000D9CF0E94620B10926B0110926A01ECE9AC
:101D9000F1E086E0DF011D928A95E9F7CACF2C9623
:101DA0000FB6F894DEBF0FBECDBFDF91CF911F916C
:101DB0000895EF92FF920F931F93CF93DF939C01AF
:101DC000009709F471C0F12CEE24E394E901219607
:101DD000F9018491843740F4843008F056C0813092
:101DE00081F0823021F160C0853709F449C0C0F12B
:101DF0009CE7980F903708F057C08F770E949D0896
:101E000046C089010E5F1F4FFE01849190E2980F3A
:101E1000983050F48770FE2D01C0FF0F8A95EAF7C5
:101E20008F2F0E946F1115C00E94CA0714C089012C
:101E30000E5F1F4FFE01849190E2980F983068F476
:101E40008770FE2D01C0FF0F8A95EAF78F2F0E9441
:101E500075110E949811E8011AC00E949D08FBCFDD
:101E60002E5F3F4FFE01C491CC2341F08FE99FE0EC
:101E70000197F1F700C00000C150F6CFE90107C09B
:101E8000FE01F490E901229602C00E94CA078F2D3C
:101E9000882341F0EFE9FFE03197F1F700C000003F
:101EA0008150F6CF9E0192CFDF91CF911F910F917C
:101EB000FF90EF90089508950E945B0F6093A60134
:101EC0007093A7018093A8019093A9010C944E0BE5
:101ED00008950C945C0F0F931F930091A60110912D
:101EE000A7012091A8013091A901602B712B822BB1
:101EF000932B1F910F910C945C0F0F931F930091E4
:101F0000A6011091A7012091A8013091A901602399
:101F10007123822393231F910F910C945C0F0F93D5
:101F20001F930091A6011091A7012091A801309163
:101F3000A90160277127822793271F910F910C9485
:101F40005C0F08950E94A10F6093A2017093A301FA
:101F50008093A4019093A5010C944E0B60E070E077
:101F6000CB010C94A20F41E050E060E070E004C0AF
:101F7000440F551F661F771F8A95D2F7CB01BA0110
:101F80000C94A20F41E050E060E070E004C0440F08
:101F9000551F661F771F8A95D2F78091A2019091F5
:101FA000A301A091A401B091A501482B592B6A2B44
:101FB0007B2BCB01BA010C94A20F41E050E060E012
:101FC00070E004C0440F551F661F771F8A95D2F733
:101FD00040955095609570958091A2019091A301D4
:101FE000A091A401B091A501482359236A237B2322
:101FF000CB01BA010C94A20F41E050E060E070E028
:1020000004C0440F551F661F771F8A95D2F7809131
:10201000A2019091A301A091A401B091A50148272C
:1020200059276A277B27CB01BA010C94A20F0F9383
:102030001F930091A2011091A3012091A40130915E
:10204000A501602B712B822B932B1F910F910C9468
:10205000A20F0F931F930091A2011091A301209151
:10206000A4013091A50160237123822393231F9142
:102070000F910C94A20F0F931F930091A201109146
:10208000A3012091A4013091A50160277127822727
:1020900093271F910F910C94A20F0895CF92DF9276
:1020A000EF92FF920F931F93CF93DF93EC01C090B9
:1020B000A601D090A701E090A801F090A90180911D
:1020C000A2019091A301A091A401B091A501C82AF9
:1020D000D92AEA2AFB2A0FE110E0B701A601002E57
:1020E00004C076956795579547950A94D2F740FDB9
:1020F00005C00150110988F780E007C0BE01802F9C
:102100000E9458030197A9F3802FDF91CF911F916F
:102110000F91FF90EF90DF90CF900895CF93DF93D2
:10212000EC010E944E10BE010E945803DF91CF9136
:102130000895CB010E948E1008958091AA01859583
:102140008595859508958091AA018770089598E0F6
:10215000899F90011124622B6093AA010C94C20FF5
:102160004091AA01809584238093AA01982F9770AB
:1021700069F450E0282F332727FD30954217530785
:1021800029F08595859585950C94DD0F089590919E
:10219000AA01977081E009F480E0089590911201FE
:1021A0009923D9F09091030297FF17C0982F969525
:1021B000969596959F3188F5E0910001F091010187
:1021C000E90FF11D877021E030E001C0220F8A95F0
:1021D000EAF78181822B818308954091000150911B
:1021E000010120E030E09FEFFA01E20FF31F62816E
:1021F000681799F09F3F19F4611101C0922F2F5F6A
:102200003F4F2E31310581F79F3F39F0FA01E90F39
:10221000F11D97FDFA95828308950895909112011A
:102220009923E1F09091030297FF18C0982F96959B
:10223000969596959F3120F5E0910001F09101016E
:10224000E90FF11D877021E030E001C0220F8A956F
:10225000EAF7209581812823218308954091000188
:102260005091010120E030E0FA01E20FF31F92816A
:10227000981301C012822F5F3F4F2E313105A1F715
:10228000089581E090E0E0910001F0910101E80FF4
:10229000F91F1082019680329105A9F70895909157
:1022A000CE01982B9093CE01089580959091CE0108
:1022B00098239093CE0108951092CE0108959091A5
:1022C000CD01982B9093CD01089580959091CD01EB
:1022D00098239093CD0108951092CD010895909187
:1022E000CC01982B9093CC01089580959091CC01CE
:1022F00098239093CC0108951092CC010895809377
:10230000AB0108951092AB010895409100015091E6
:10231000010120E030E080E0FA01E20FF31F91813B
:1023200091118F5F2F5F3F4F2F313105A9F708952E
:10233000E0910001F09101018091CE018083E09154
:102340000001F091010180819091CD01892B808362
:10235000E0910001F091010180819091CC01892BE5
:1023600080839091AB01992361F0E0910001F0919D
:1023700001018081892B80830E9485118111109237
:10238000AB0180910001909101010C94AE066DEEBD
:102390007EEF80E090E00E94D31F60E082E090E05A
:1023A0000E94C11F60E083E090E00E94C11F60E0D6
:1023B00084E090E00E94C11F60E085E090E00C9412
:1023C000C11F80E090E00E94BB1F21E08D3E9E4F28
:1023D00009F020E0822F089582E090E00C94B31F72
:1023E00083E090E00C94B31F84E090E00C94B31F62
:1023F000682F84E090E00C94C11F80910902843022
:1024000021F11092D00120E488E190E00FB6F89419
:10241000A895809360000FBE2093600080E00E942A
:10242000390383B7817F846083BF83B7816083BFB3
:102430007894889583B78E7F83BF88E10FB6F89430
:1024400080936000109260000FBE08950895089573
:10245000CF930E9426120E94F9050E942712C0E025
:102460008C2F0E949606811105C0CF5FC630C1F740
:1024700080E001C081E0CF9108950E94620B0E942C
:10248000A2060C9439031F920F920FB60F921124DB
:102490008F939F93AF93BF938091D001811113C00D
:1024A0008091FF0190910002A0910102B09102027F
:1024B0004196A11DB11D8093FF0190930002A0934E
:1024C0000102B0930202BF91AF919F918F910F9043
:1024D0000FBE0F901F90189582E084BD93E095BDCC
:1024E0009AEF97BD80936E0008952FB7F89480916E
:1024F000FF0190910002A0910102B09102022FBF52
:102500000895CF92DF92EF92FF920F931F932FB710
:10251000F8944091FF015091000260910102709186
:1025200002022FBF6A017B01EE24FF248C0120E010
:1025300030E0C016D106E206F30610F4415051090E
:10254000481B590BCA011F910F91FF90EF90DF902C
:10255000CF90089578941F920F920FB60F92112486
:102560008F939F93AF93BF938091FF01909100024F
:10257000A0910102B09102020196A11DB11D8093AC
:10258000FF0190930002A0930102B0930202BF9159
:10259000AF919F918F910F900FBE0F901F90189544
:1025A0000E946E1BF8942FEF87EA91E6215080403D
:1025B0009040E1F700C0000087E090EBDC018093E1
:1025C000120290931302A0931402B09315022CE010
:1025D00088E190E00FB6F894A895809360000FBE54
:1025E00020936000FFCF0E94E111811102C00E9480
:1025F000C7110E94EC118093CF010E94F41190E06A
:1026000090930402809303020E94F011682F70E0FF
:1026100080E090E00C94690F8091D30180FF0BC0A3
:102620006091050185E0689FB0011124759567955B
:10263000759567952AC081FF09C06091050185E005
:10264000689FB0011124759567951FC082FF07C070
:102650006091050185E0689FB001112416C040918A
:10266000D4014423C9F060910401461788F72091F2
:10267000050185E0289F90011124429FC001439FDE
:10268000900D112470E00E94851F6038710540F4A0
:102690006115710539F002C065E070E0862F08957C
:1026A0008FE7089581E008958091D30180FF08C0ED
:1026B0006091030170E0759567957595679521C0E8
:1026C00081FF06C06091030170E07595679519C0A0
:1026D00082FF04C06091030170E010C08091D401BA
:1026E0008823C1F0609102018617A0F79091030141
:1026F000989FC001112470E00E94851F6038710509
:1027000028F46115710521F0862F08958FE708954B
:1027100081E0089561E070E0F4CF803F21F40E94F1
:102720000C13819504C0813F29F40E940C138093FF
:10273000D7010895823F21F40E940C13819504C0B3
:10274000833F29F40E940C138093D6010895893F9A
:1027500019F40E94541305C08A3F31F40E945413A7
:1027600081958093D80108958B3F21F40E945413E2
:10277000819504C08C3F29F40E9454138093D901A1
:102780000895843F21F48091D501816017C0853F71
:1027900021F48091D501826011C0863F21F480919F
:1027A000D50184600BC0873F21F48091D5018860FA
:1027B00005C0883F31F48091D50180618093D501B7
:1027C00008958D3F21F48091D30181600BC08E3F2D
:1027D00021F48091D301826005C08F3F29F480915C
:1027E000D30184608093D3010895803F39F48091B0
:1027F000D70187FF6CC01092D70169C0813F29F4CF
:102800008091D7011816BCF362C09091D601823F27
:1028100029F497FF5CC01092D60159C0833F19F488
:102820001916CCF354C0893F41F48091D801181691
:102830000CF04DC01092D8014AC08A3F29F4809113
:10284000D80187FF44C0F6CF8B3F39F48091D9017E
:1028500087FF3DC01092D9013AC08C3F29F4809186
:10286000D9011816BCF333C0843F21F48091D501FF
:102870008E7F17C0853F21F48091D5018D7F11C0D7
:10288000863F21F48091D5018B7F0BC0873F21F4D7
:102890008091D501877F05C0883F31F48091D501B3
:1028A0008F7E8093D50113C08D3F21F48091D30199
:1028B0008E7F0BC08E3F21F48091D3018D7F05C0A8
:1028C0008F3F29F48091D3018B7F8093D301809136
:1028D000D60181110EC08091D70181110AC080916B
:1028E000D801811106C08091D901811102C01092D6
:1028F000D401089585ED91E00E94B9060E947512F9
:102900009093D2018093D10108951F93CF93DF93C9
:102910008091D1019091D2010E9481124091D40105
:10292000442321F02091060130E006C020910701E8
:102930005AE0259F900111248217930708F482C062
:102940008091D6011091D701D091D801C091D901C1
:10295000811107C0111105C0D11103C0CC2309F4A6
:1029600071C04F3F19F04F5F4093D401181624F403
:102970000E940C138093D6018091D60187FF05C079
:102980000E940C1381958093D601111624F40E94A5
:102990000C138093D7018091D70187FF05C00E9457
:1029A0000C1381958093D7016091D601662339F18C
:1029B0001091D701112319F1772767FD7095872FA3
:1029C000972F0E94961E23E333E343E35FE30E94C5
:1029D000FA1E0E94631E6093D601612F772767FD60
:1029E0007095872F972F0E94961E23E333E343E3CE
:1029F0005FE30E94FA1E0E94631E6093D7011D16BA
:102A000024F40E9454138093D8018091D80187FF49
:102A100005C00E94541381958093D8011C1624F49C
:102A20000E9454138093D9018091D90187FF05C07A
:102A30000E94541381958093D901DF91CF911F910A
:102A40000C947A14DF91CF911F910895E5EDF1E098
:102A500085E0DF011D928A95E9F71092D40110926A
:102A6000D3010895833081F128F4813059F0823008
:102A7000D1F00895853009F449C0B8F1863009F4E1
:102A800056C0089520910701862F90E0820F911D76
:102A90008F3F910520F4620F6093070108958FEF37
:102AA00080930701089520910601862F90E0820F00
:102AB000911D8F3F910520F4620F609306010895E8
:102AC0008FEF80930601089520910501862F90E0F5
:102AD000820F911D8F3F910520F4620F60930501D5
:102AE00008958FEF80930501089520910401862FAA
:102AF00090E0820F911D8F3F910520F4620F60934B
:102B0000040108958FEF809304010895209103013B
:102B1000862F90E0820F911D8F3F910520F4620F68
:102B20006093030108958FEF80930301089520912E
:102B30000201862F90E0820F911D8F3F910520F4B6
:102B4000620F6093020108958FEF80930201089550
:102B5000833011F128F4813049F0823091F00895EA
:102B6000853081F120F18630C1F10895809107010F
:102B7000681720F4861B80930701089510920701BF
:102B8000089580910601681720F4861B8093060142
:102B9000089510920601089580910501681720F4A8
:102BA000861B809305010895109205010895809178
:102BB0000401681720F4861B809304010895109285
:102BC0000401089580910301681720F4861B809307
:102BD000030108951092030108958091020168177E
:102BE00020F4861B8093020108951092020108953B
:102BF000873220F58E3108F098C0803109F474C016
:102C000070F4873009F44CC018F4863089F12EC076
:102C10008B3009F4A0C08E3009F45CC027C0863127
:102C200009F499C020F4813109F46FC01FC08931C3
:102C300009F491C08B3109F443C018C0883309F4FA
:102C40008AC050F4893209F47EC0853309F47BC010
:102C5000873209F478C00AC0833409F474C020F4C0
:102C60008A3308F060C002C0883461F080E00895C3
:102C70008091CF01817F8E7F8093CF0181E080930F
:102C8000DB0108950E94620B2FEF83ED90E321504A
:102C900080409040E1F700C000000E94D0125BC06D
:102CA0009091CF01892F8095817080FB90F990934E
:102CB000CF01811150C0997F977F9093CF014BC076
:102CC0009091CF0191FB882780F921E0822780FB3A
:102CD00091F913C09091CF0192FB882780F921E0F0
:102CE000822780FB92F909C09091CF0193FB88273E
:102CF00080F921E0822780FB93F99093CF0188230C
:102D000051F191609093CF0108950E94620B9091D0
:102D1000030297FB882780F921E0822780FB97F93F
:102D20009093030218C027EC01C023EE280F61E046
:102D300070E080E090E004C0660F771F881F991F45
:102D40002A95D2F704C061E070E080E090E00E9434
:102D5000690F0E94620B81E0089580E0089580E091
:102D600008958E518A3030F4E82FF0E0E35EFE4F94
:102D70008081089580E00895CF93C82F8091DB0172
:102D8000813069F018F08230B1F180C0E09100012B
:102D9000F09101018081823209F07AC007C0E09190
:102DA0000001F09101018081823249F48C2F0E9450
:102DB000AD1681111DC08C2F0E94F8151AC08C2FE2
:102DC0000E94AF16811114C0C43179F048F4CB30A1
:102DD00079F0C03109F060C082E08093DB0108C067
:102DE000C93219F0C83321F057C01092DB0154C02A
:102DF00081E0817053C0C93289F118F5C43171F195
:102E0000B0F4C73009F046C08EE18093070182E339
:102E1000809306018AE08093050184E18093040198
:102E200088E08093030188E28093020133C082EE40
:102E30008C0F863078F58C2F0E94B1168093DA01C2
:102E400029C0CE34E9F020F4CB3421F56AE013C078
:102E5000C13579F0C235F1F461E00DC08091DA013D
:102E6000882319F01092DA0115C081E08093DB010C
:102E700015C061E006C08091DA010E9432150AC0D7
:102E80006AE08091DA010E94A81504C01092DB016B
:102E900080E004C081E002C080E0ABCFCF91089514
:102EA0008091FC0108950F931F93CF93DF9300D07F
:102EB0001F92CDB7DEB78C010E94BF19823011F08E
:102EC000853019F583E089831B830A838093E900A9
:102ED0008FEF9091E800815095FD06C095ED9A9591
:102EE000F1F700008111F5CF8091E80085FF0DC05A
:102EF00040E050E063E070E0CE0101960E94DC19F2
:102F00008091E8008E778093E8000F900F900F90EB
:102F1000DF91CF911F910F910895CF93DF9300D050
:102F20001F92CDB7DEB720910902243031F522E09F
:102F30002983805891099B838A8383E08093E900E9
:102F40008FEF9091E800815095FD06C095ED9A9520
:102F5000F1F700008111F5CF8091E80085FF0DC0E9
:102F600040E050E063E070E0CE0101960E94DC1981
:102F70008091E8008E778093E8000F900F900F907B
:102F8000DF91CF910895CF93DF93EC010E94BF1999
:102F9000823011F08530F9F482E08093E9008FEF00
:102FA0009091E800815095FD06C095ED9A95F1F756
:102FB00000008111F5CF8091E80085FF0CC040E052
:102FC00050E065E070E0CE010E94DC198091E800DD
:102FD0008E778093E800DF91CF910895CF93DF93B0
:102FE000EC010E94BF19823019F0853009F047C00A
:102FF000809112018823E1F08091030287FF18C0BD
:1030000084E08093E9008FEF9091E800815095FD76
:1030100006C095E19A95F1F700008111F5CF8091F6
:10302000E80085FF2CC040E050E060E270E017C08F
:1030300081E08093E9008FEF9091E800815095FD49
:1030400006C095ED9A95F1F700008111F5CF8091BA
:10305000E80085FF14C040E050E068E070E0CE0179
:103060000E94DC198091E8008E778093E80080E26E
:10307000FE01ACEDB1E001900D928A95E1F7DF9190
:10308000CF91089580910802811109C00E946E1BA2
:103090000E94CB1B8091E20084608093E20008953F
:1030A000109208020895089508950C943D1242E08C
:1030B00061EC81E00E94E81A42E061EC82E00E944B
:1030C000E81A42E061EC83E00E94E81A42E261EC17
:1030D00084E00C94E81A80910B02833009F455C007
:1030E00030F4813071F0823009F48EC008958A3056
:1030F00009F47AC08B3009F460C0893009F09CC0B3
:1031000020C080910A02813A09F096C08091E800BF
:10311000877F8093E80080910E0290910F02892BA7
:1031200021F060E080E090E003C060E28CED91E08F
:1031300070E00E94251A8091E8008B778093E80068
:10314000089580910A02813209F076C080910E02C2
:1031500090910F02009719F0039709F06DC08091CC
:10316000E800877F8093E8008091E80082FD05C039
:10317000809109028111F8CF5FC08091F1008093A6
:10318000FC018091E8008B7753C080910A02813A5C
:1031900009F052C080910E0290910F02892B09F024
:1031A0004BC08091E800877F8093E8008091E80021
:1031B00080FFFCCF8091120136C080910A028132DB
:1031C000D9F580910E0290910F02892BA9F580917B
:1031D000E800877F8093E8000E941D1B80910C020D
:1031E000809312010C94620B80910A02813221F5C6
:1031F0008091E800877F8093E8000E941D1B8091EA
:103200000D028093FD01089580910A02813AA1F494
:103210008091E800877F8093E8008091E80080FF3C
:10322000FCCF8091FD018093F1008091E8008E77C2
:103230008093E8000C941D1B089584B7877F84BF9A
:1032400088E10FB6F89480936000109260000FBE82
:1032500080E880936100109261000E94F1060E9454
:103260006E1B0E94CB1B8091E20084608093E20081
:1032700078940E94461E0E94F30688E091E00E9426
:103280009D0680910902853069F40E94FD118091AC
:1032900007028823B1F30E942812882391F30E9429
:1032A000C619EFCF0E94F906ECCF292F3327233020
:1032B0003105A9F06CF42130310509F442C0223007
:1032C000310509F043C08DE690E020EA31E042C0CC
:1032D00021323105C9F02232310519F137C0992761
:1032E0008130910541F08230910541F0892B71F5D3
:1032F000ECE9F1E005C0E2E9F1E002C0EAE7F1E063
:10330000849190E09F0126C0643000F5E62FF0E044
:10331000EE0FFF1FED5CFE4F2081318189E090E0D0
:1033200019C0643098F4E62FF0E0DF01AA0FBB1F4C
:10333000A55DBE4F2D913C91E95DFE4F808190E0EF
:1033400009C082E190E02DE032E004C080E090E02E
:1033500020E030E0FA013183208308950895CF936F
:10336000C82F0E94AE19C093FE01CF91089580919D
:103370000902843011F482E0089581E0089580917B
:10338000FE01811102C00C94B719089580E189BD36
:1033900082E189BD09B400FEFDCF8091D8008F7D08
:1033A0008093D8008091E00082608093E00080915B
:1033B000E00081FDFCCF0895CF92DF92EF92FF9263
:1033C0000F931F93CF93DF937C018B01EA010E943F
:1033D0003E1B811131C0209731F088819981081BF3
:1033E000190BE80EF91EC12CD12C0115110519F18C
:1033F0008091E80085FD14C08091E8008E7780936D
:10340000E800209741F0888199818C0D9D1D99835A
:10341000888385E011C00E943E1B882331F30CC0D5
:10342000F70181917F018093F10001501109FFEFB5
:10343000CF1ADF0ADACF80E0DF91CF911F910F9191
:10344000FF90EF90DF90CF9008952091100230917F
:1034500011022617370748F06115710539F42091DC
:10346000E8002E772093E80001C0B901FC0120E0BC
:1034700061157105B9F180910902882309F440C0F2
:10348000853009F43FC08091E80083FD3DC0809104
:10349000E80082FF06C08091E80082FF26C080E03D
:1034A00008958091E80080FFE3CF2091F3008091A0
:1034B000F20090E0922B6115710551F08830910572
:1034C00038F421912093F100615071090196F3CFF6
:1034D00021E0089709F020E08091E8008E77809342
:1034E000E800C6CF2111C7CFD6CF8091090288232B
:1034F00039F0853039F08091E80083FFCCCF04C0EB
:1035000082E0089583E0089581E0089520911002FB
:10351000309111022617370748F06115710539F40B
:103520002091E8002E772093E80001C0B901FC014A
:1035300020E061157105C1F180910902882309F429
:1035400041C0853009F440C08091E80083FD3EC051
:103550008091E80082FF06C08091E80082FF27C0CA
:1035600080E008958091E80080FFE3CF2091F30090
:103570008091F20090E0922B6115710559F088302E
:10358000910540F424912093F10031966150710926
:103590000196F2CF21E0089709F020E08091E80041
:1035A0008E778093E800C5CF2111C6CFD5CF80910B
:1035B0000902882339F0853039F08091E80083FFD3
:1035C000CBCF04C082E0089583E0089581E00895A0
:1035D000982F973058F59093E900981739F070912B
:1035E000EC002091ED005091F00003C0242F762FC5
:1035F00050E021FF19C03091EB003E7F3093EB008B
:103600003091ED003D7F3093ED003091EB00316063
:103610003093EB007093EC002093ED005093F0009A
:103620002091EE0027FF07C09F5FD3CF8F7080935C
:10363000E90081E0089580E0089580910A0287FD05
:1036400005C08091E80080FF0EC012C08091E800A4
:1036500082FD05C0809109028111F8CF0895809103
:10366000E8008B7708C0809109028111EACF0895A4
:103670008091E8008E778093E80008958091E400BF
:103680009091E50045E62091EC0020FF21C02091BB
:10369000E80020FD21C020910902222389F0253075
:1036A00089F02091EB0025FD0FC02091E4003091BE
:1036B000E5002817390739F3415041F0C901E3CF3C
:1036C00082E0089583E0089581E0089584E00895FC
:1036D0002091E80022FFDFCF80E008950E94DC1BEC
:1036E0000E94E41BE0EEF0E0808181608083E8EDE1
:1036F000F0E080818F77808319BCA7EDB0E08C91DA
:103700008E7F8C9380818F7E808310920802089533
:103710000F931F93CF93DF930E94DC1B0E94E41B47
:10372000C8EDD0E088818F7788838881806888831E
:1037300088818F7D888319BC10920902109205023E
:10374000109207021092060200EE10E0F80180814C
:103750008B7F808388818160888342E060E080E0A5
:103760000E94E81AE1EEF0E080818E7F8083E2EE35
:10377000F0E0808181608083808188608083F801AF
:1037800080818E7F8083888180618883DF91CF9163
:103790001F910F910895E8EDF0E080818F7E808386
:1037A000E7EDF0E080818160808384E082BF81E08A
:1037B000809308020C94881BE8EDF0E080818E7FF6
:1037C00080831092E20008951092DA001092E100D6
:1037D00008951F920F920FB60F9211242F933F93CB
:1037E0004F935F936F937F938F939F93AF93BF9309
:1037F000EF93FF938091E10082FF0BC08091E20084
:1038000082FF07C08091E1008B7F8093E1000E94DE
:10381000451E8091DA0080FF1FC08091D80080FF94
:103820001BC08091DA008E7F8093DA008091D900EE
:1038300080FF0DC080E189BD82E189BD09B400FE31
:10384000FDCF81E0809309020E94421805C019BC97
:10385000109209020E9450188091E10080FF19C067
:103860008091E20080FF15C08091E2008E7F8093FE
:10387000E2008091E20080618093E2008091D800B4
:1038800080628093D80019BC85E0809309020E9471
:1038900054188091E10084FF30C08091E20084FFE1
:1038A0002CC080E189BD82E189BD09B400FEFDCF55
:1038B0008091D8008F7D8093D8008091E1008F7E29
:1038C0008093E1008091E2008F7E8093E2008091FE
:1038D000E20081608093E20080910502882311F06C
:1038E00084E007C08091E30087FF02C083E001C04D
:1038F00081E0809309020E9455188091E10083FFC6
:1039000029C08091E20083FF25C08091E100877F7C
:103910008093E10082E08093090210920502809179
:10392000E1008E7F8093E1008091E2008E7F8093A2
:10393000E2008091E20080618093E20042E060E07A
:1039400080E00E94E81A8091F00088608093F00087
:103950000E945318FF91EF91BF91AF919F918F916A
:103960007F916F915F914F913F912F910F900FBE7B
:103970000F901F9018951F920F920FB60F9211245F
:103980002F933F934F935F936F937F938F939F9367
:10399000AF93BF93CF93EF93FF93C091E900CF70A4
:1039A0008091EC001092E9008091F000877F809375
:1039B000F00078940E94F71C1092E9008091F000CA
:1039C00088608093F000C093E900FF91EF91CF9160
:1039D000BF91AF919F918F917F916F915F914F9127
:1039E0003F912F910F900FBE0F901F9018951F932E
:1039F000CF93DF93CDB7DEB7AA970FB6F894DEBFAB
:103A00000FBECDBFEAE0F2E08091F100819322E0A9
:103A1000E231F207C9F70E946B188091E80083FF3A
:103A20001CC120910A0230910B02832F90E08A3052
:103A3000910508F012C1FC01E556FF4F0C94991F47
:103A4000203881F0223809F008C180910E028F7071
:103A50008093E9008091EB0085FB882780F9109224
:103A6000E90006C0809106029091070291118260E0
:103A70009091E800977F9093E8008093F100109276
:103A8000F100C5C0822F8D7F09F0E7C0222319F015
:103A9000223061F0E2C080910C02813009F0DDC07B
:103AA000333009F080E08093070228C080910C0237
:103AB000811124C020910E022F7009F4CEC02093F2
:103AC000E9008091EB0080FF19C08091EB0033305A
:103AD00011F4806211C080618093EB0081E090E07E
:103AE000022E01C0880F0A94EAF78093EA00109230
:103AF000EA008091EB0088608093EB001092E9006F
:103B00008091E800877F86C02111A7C010910C0228
:103B10001F778091E3008078812B8093E300809170
:103B2000E800877F8093E8000E941D1B8091E800D9
:103B300080FFFCCF8091E30080688093E300112335
:103B400011F083E001C082E08093090286C0205812
:103B5000223008F082C080910C0290910D028C3DC1
:103B600023E0920779F583E08A838AE289834FB75D
:103B7000F894DE01139620E03EE051E2E32FF0E0FE
:103B800050935700E49120FF03C0E295EF703F5F30
:103B9000EF708E2F90E0EA3010F0C79601C0C0960B
:103BA0008D939D932F5F243149F74FBF8091E8009B
:103BB000877F8093E8006AE270E0CE0101960E9460
:103BC000251A14C0AE014F5F5F4F60910E020E9434
:103BD0005519009709F441C02091E800277F2093F0
:103BE000E800BC0189819A810E94861A8091E800D0
:103BF0008B778093E80031C0203879F58091E80018
:103C0000877F8093E800809105028093F100809186
:103C1000E8008E778093E8000E941D1B1EC02111D2
:103C20001CC090910C029230C0F48091E800877F14
:103C30008093E800909305020E941D1B809105026D
:103C4000811104C08091E30087FF02C084E001C0BD
:103C500081E0809309020E9457188091E80083FF59
:103C60000AC08091E800877F8093E8008091EB0094
:103C700080628093EB00AA960FB6F894DEBF0FBE69
:103C8000CDBFDF91CF911F9108950895CF9380917B
:103C900009028823B1F08091E9008F709091EC00C7
:103CA00090FF02C090E801C090E0C92FC82B10928D
:103CB000E9008091E80083FD0E94F71CCF70C0935B
:103CC000E900CF91089504D06894B1118DC0089592
:103CD00070D088F09F5790F0B92F9927B751A0F076
:103CE000D1F0660F771F881F991F1AF0BA95C9F790
:103CF00012C0B13081F077D0B1E0089574C0672F61
:103D0000782F8827B85F39F0B93FCCF3869577953F
:103D10006795B395D9F73EF4909580957095619528
:103D20007F4F8F4F9F4F0895E89409C097FB3EF453
:103D300090958095709561957F4F8F4F9F4F9923F8
:103D4000A9F0F92F96E9BB279395F6958795779576
:103D50006795B795F111F8CFFAF4BB0F11F460FF36
:103D60001BC06F5F7F4F8F4F9F4F16C0882311F08E
:103D700096E911C0772321F09EE8872F762F05C0A2
:103D8000662371F096E8862F70E060E02AF09A953D
:103D9000660F771F881FDAF7880F9695879597F932
:103DA000089557FD9058440F551F59F05F3F71F02B
:103DB0004795880F97FB991F61F09F3F79F0879592
:103DC0000895121613061406551FF2CF4695F1DF1B
:103DD00008C0161617061806991FF1CF86957105AB
:103DE000610508940895E894BB2766277727CB01DF
:103DF00097F908950BD078C069D028F06ED018F0EC
:103E0000952309F05AC05FC01124EECFCADFA0F39A
:103E1000959FD1F3950F50E0551F629FF001729F5F
:103E2000BB27F00DB11D639FAA27F00DB11DAA1F7E
:103E3000649F6627B00DA11D661F829F2227B00DCB
:103E4000A11D621F739FB00DA11D621F839FA00D56
:103E5000611D221F749F3327A00D611D231F849FA6
:103E6000600D211D822F762F6A2F11249F575040FD
:103E70008AF0E1F088234AF0EE0FFF1FBB1F661F98
:103E8000771F881F91505040A9F79E3F510570F051
:103E900014C0AACF5F3FECF3983EDCF3869577958C
:103EA0006795B795F795E7959F5FC1F7FE2B880F4C
:103EB000911D9695879597F9089597F99F6780E8E2
:103EC00070E060E008959FEF80EC089500240A946C
:103ED0001616170618060906089500240A941216E5
:103EE0001306140605060895092E0394000C11F418
:103EF000882352F0BB0F40F4BF2B11F460FF04C0C5
:103F00006F5F7F4F8F4F9F4F089597FB072E16F4DB
:103F1000009407D077FD09D00E949F1F07FC05D0B1
:103F20003EF4909581959F4F0895709561957F4FD0
:103F30000895EE0FFF1F0590F491E02D0994AA1B40
:103F4000BB1B51E107C0AA1FBB1FA617B70710F084
:103F5000A61BB70B881F991F5A95A9F780959095B6
:103F6000BC01CD010895F999FECF92BD81BDF89AAB
:103F7000992780B50895A8E1B0E042E050E00C94A4
:103F8000DB1F262FF999FECF92BD81BDF89A0197CC
:103F900000B4021639F01FBA20BD0FB6F894FA9A91
:103FA000F99A0FBE08950196272F0E94C21F0C9404
:103FB000C11FDC01CB01FC01F999FECF06C0F2BDA7
:103FC000E1BDF89A319600B40D9241505040B8F7D7
:063FD0000895F894FFCFF4
:103FD600AC012808140A321E5017EE17C3178D17A6
:103FE600531701F1F0300090950000000001020324
:103FF60004050607080900404D3639DB028E0258D3
:0C400600021F02B201CB01E401FD010029
:00000001FF
